S01A00006465706C6F796D656E74736F6674776172652E737265635E
S1130000FDC0000018C1000016C1000014C10000AA
S113001012C1000010C100000EC100000CC100009C
S11300200AC1000008C1000006C1000004C10000AC
S113003002C1000000C10000FEC00000FCC00000BE
S1130040FAC00000F8C00000F6C00000F4C00000D0
S1130050F2C00000F0C00000EEC00000ECC00000E0
S1130060EAC000000C946F08E6C00000E4C0000081
S1130070E2C00000E0C00000DEC00000DCC0000000
S1130080DAC00000D8C00000D6C00000D4C0000010
S1130090D2C00000D0C00000CEC00000CCC0000020
S11300A0CAC00000C8C00000C6C00000C4C0000030
S11300B0C2C00000C0C00000BEC00000EFC7000006
S11300C0BAC00000B8C00000B6C00000B4C0000050
S11300D0B2C00000B0C00000AEC00000ACC0000060
S11300E0AAC00000A8C00000A6C00000A4C0000070
S11300F0A2C00000A0C000009EC000009CC0000080
S11301009AC0000098C0000096C0000094C000008F
S113011092C0000090C000008EC00000A6C0000085
S1130120D2C00000FEC000002AC1000084C000004C
S113013082C000008EC700007EC000007CC00000AA
S11301407AC0000078C0000076C0000074C00000CF
S113015072C0000070C000006EC000006CC00000DF
S11301606AC0000068C0000066C0000064C00000EF
S113017062C0000060C000005EC000005CC00000FF
S11301805AC0000058C0000056C0000054C000000F
S113019052C0000050C000004EC000004CC000001F
S11301A04AC0000048C0000046C0000044C000002F
S11301B042C0000040C000003EC000003CC000003F
S11301C03AC0000038C0000036C0000034C000004F
S11301D032C0000030C000002EC000002CC000005F
S11301E02AC0000028C0000026C0000024C000006F
S11301F022C0000020C000001EC0000011241FBE49
S1130200CFEFCDBFDFE2DEBF11E2A0E0B0E2EEEF60
S1130210F2E202C005900D92A430B107D9F723E2AF
S1130220A4E0B1E201C01D92A332B207E1F70E943B
S11302301D0A0C947D11E4CECF93DF931F92CDB7AA
S1130240DEB780910E2190910F21E0910821F09169
S11302500921BE016F5F7F4F09958981082E000C2B
S1130260990B0F90DF91CF9108951F920F920FB6C3
S11302700F9211242F933F934F935F936F937F9328
S11302808F939F93AF93BF93EF93FF934091240277
S113029050912502E0910A21F0910B2161E080E068
S11302A092E00995FF91EF91BF91AF919F918F914A
S11302B07F916F915F914F913F912F910F900FBE5E
S11302C00F901F9018951F920F920FB60F92112442
S11302D02F933F934F935F936F937F938F939F934A
S11302E0AF93BF93EF93FF9340912C0250912D0253
S11302F0E0910A21F0910B2162E080E092E00995FF
S1130300FF91EF91BF91AF919F918F917F916F91E9
S11303105F914F913F912F910F900FBE0F901F90BF
S113032018951F920F920FB60F9211242F933F939B
S11303304F935F936F937F938F939F93AF93BF93E9
S1130340EF93FF934091340250913502E0910A21DA
S1130350F0910B2164E080E092E00995FF91EF9128
S1130360BF91AF919F918F917F916F915F914F91C9
S11303703F912F910F900FBE0F901F9018951F92D1
S11303800F920FB60F9211242F933F934F935F93C5
S11303906F937F938F939F93AF93BF93EF93FF9349
S11303A040913C0250913D02E0910A21F0910B21D1
S11303B068E080E092E00995FF91EF91BF91AF91E1
S11303C09F918F917F916F915F914F913F912F9169
S11303D00F900FBE0F901F901895FC01918195FF0F
S11303E0FDCF608380E090E00895FC019181992322
S11303F0ECF7808108954F925F926F927F928F9273
S11304009F92AF92BF92EF92FF920F931F93CF935D
S11304107C014A015B0128013901FC01848182FFCE
S113042016C0D901C801689412F8B695A795979596
S113043087951694D1F7B901A801032E36E1769574
S11304406795579547953A95D1F7302D15C0D90141
S1130450C801689413F8B695A7959795879516944F
S1130460D1F7B901A801032E37E176956795579521
S113047047953A95D1F7302D88159905AA05BB05FE
S113048008F4A6C084169506A606B70608F4A2C00A
S1130490F701848182FD04C0880C991CAA1CBB1C32
S11304A0C301B201A50194010E94B20C2F3F310592
S11304B04105510508F490C08FEF90E0A0E0B0E052
S11304C0C9EF05C0281739074A075B0758F0880F9A
S11304D0991FAA1FBB1FCD3F0CF48160CF5FC730AB
S11304E089F74FC0CC230CF04CC0D501C401880F50
S11304F0991FAA1FBB1F880F991FAA1FBB1F880F14
S1130500991FAA1FBB1F481A590A6A0A7B0ACE3FC1
S1130510F4F48DEF9FEF8C1B9109C7FD939504C0F4
S1130520440C551C661C771C8A95D2F7D501C4016E
S1130530B695A79597958795BC01CD01640D751D5A
S1130540861D971DA50194010E94B20C37C083E05B
S11305508C0FA501940104C0220F331F441F551FA3
S11305608A95D2F7DA01C901B695A795979587952B
S1130570BC01CD01640D751D861D971D0E94B20C32
S11305801DC083E08C0FA501940104C0220F331F0A
S1130590441F551F8A95D2F7DA01C901B695A7956C
S11305A097958795BC01CD01640D751D861D971D1A
S11305B00E94B20C2150310941095109832F8F70D7
S11305C0C295C07FC82BF701C783268381E018C07A
S11305D080E016C080E014C0D501C401880F991FC3
S11305E0AA1FBB1F880F991FAA1FBB1F880F991F23
S11305F0AA1FBB1F481A590A6A0A7B0AC9EF89CF86
S1130600CF911F910F91FF90EF90BF90AF909F906B
S11306108F907F906F905F904F9008950F931F93EA
S1130620CF93DF93EC018B01009709F4BEC0803CAB
S1130630910521F460E180E0E5D4B7C0C11584E000
S1130640D80721F464E080E0DDD4AFC0C038E1E035
S1130650DE0721F462E080E0D5D4A7C0C115F1E043
S1130660DF0721F461E080E0CDD49FC0C03883E08F
S1130670D80721F461E081E0C5D497C0C115E2E058
S1130680DE0721F462E081E0BDD48FC0C032F3E024
S1130690DF0721F464E082E0B5D487C0C11588E0A7
S11306A0D80721F461E083E0ADD47FC0C115E9E04F
S11306B0DE0721F461E084E0A5D477C0C115FAE037
S11306C0DF0721F461E085E09DD46FC0C03488E089
S11306D0D80721F462E083E095D467C0C034E9E030
S11306E0DE0721F462E084E08DD45FC0C039F8E015
S11306F0DF0721F464E083E085D457C0C03989E082
S1130700D80721F464E084E07DD44FC0C039EAE026
S1130710DE0721F464E085E075D447C0C03CF8E00E
S1130720DF0721F468E083E06DD43FC0C03C89E07A
S1130730D80721F468E084E065D437C0C03AE8E023
S1130740DE0721F460E183E05DD42FC0C03AF9E014
S1130750DF0721F460E184E055D427C0C03A8AE081
S1130760D80721F460E185E04DD41FC0C03BE8E028
S1130770DE0721F460E283E045D417C0C03BF9E012
S1130780DF0721F460E284E03DD40FC0C03884E088
S1130790D80721F460E483E035D407C0C03AE4E02C
S11307A0DE0719F460E485E02DD48D818F738D8389
S11307B0F80195818481892B9681911198E0892B88
S11307C08D83F801408151816281738100E018E4D6
S11307D028EE31E0CE010FDE9C8198609C839C81E1
S11307E090619C83DF91CF911F910F910895FF92A7
S11307F00F931F93CF93DF93EC01F62E142F022F48
S1130800009709F4BEC0803C910521F460E180E0CA
S1130810F9D3B7C0C11584E0D80721F464E080E0BF
S1130820F1D3AFC0C03881E0D80721F462E080E0A2
S1130830E9D3A7C0C11581E0D80721F461E080E0C5
S1130840E1D39FC0C03883E0D80721F461E081E0A0
S1130850D9D397C0C11582E0D80721F462E081E0C2
S1130860D1D38FC0C03283E0D80721F464E082E0A2
S1130870C9D387C0C11588E0D80721F461E083E0BB
S1130880C1D37FC0C11589E0D80721F461E084E0B9
S1130890B9D377C0C1158AE0D80721F461E085E0B7
S11308A0B1D36FC0C03488E0D80721F462E083E09C
S11308B0A9D367C0C03489E0D80721F462E084E09A
S11308C0A1D35FC0C03988E0D80721F464E083E095
S11308D099D357C0C03989E0D80721F464E084E093
S11308E091D34FC0C0398AE0D80721F464E085E091
S11308F089D347C0C03C88E0D80721F468E083E08E
S113090081D33FC0C03C89E0D80721F468E084E08B
S113091079D337C0C03A88E0D80721F460E183E096
S113092071D32FC0C03A89E0D80721F460E184E094
S113093069D327C0C03A8AE0D80721F460E185E092
S113094061D31FC0C03B88E0D80721F460E283E094
S113095059D317C0C03B89E0D80721F460E284E092
S113096051D30FC0C03884E0D80721F460E483E099
S113097049D307C0C03A84E0D80719F460E485E09D
S113098041D364E08F2D3ED387E08883002339F080
S113099080E1189FA00111244360498301C019829A
S11309A0DF91CF911F910F91FF900895CF92DF9225
S11309B0EF92FF920F931F93CF93DF93EC01CB0140
S11309C0BA016801790120E030E040E854E453D7EB
S11309D09B01AC0160E074E284EF9BE42AD620E042
S11309E030E040E85FE3C0D58CD66EA37FA36EA150
S11309F07FA180E090E0B1D6A70196013CD781D6D3
S1130A0068A779A788A599A58AA79BA788A599A56A
S1130A108CA79DA788A599A58EA79FA7DF91CF91A5
S1130A201F910F91FF90EF90DF90CF900895CF9397
S1130A30DF93EB01DADC8883DF91CF910895CDCC8D
S1130A400895CF92DF92FF920F931F93CF93DF937A
S1130A50CDB7DEB72797CDBFDEBF8C01F22E842F32
S1130A608770CC24C394D12CB60102C0660F771FC3
S1130A708A95E2F746954695469520E2429FC00145
S1130A80112441E050E09A5F62D28F2D8770B60145
S1130A9002C0660F771F8A95E2F7F694F694F694EF
S1130AA020E2F29EC001112440E050E09A5F4FD250
S1130AB00115110509F43EC1003C110521F460E162
S1130AC080E0A0D237C1011584E0180721F464E066
S1130AD080E098D22FC1003821E0120721F462E0AF
S1130AE080E090D227C1011581E0180721F461E06C
S1130AF080E088D21FC1003823E0120721F461E0AE
S1130B0081E080D217C1011582E0180721F462E068
S1130B1081E078D20FC1003223E0120721F464E0AF
S1130B2082E070D207C1011588E0180721F461E062
S1130B3083E068D2FFC0011529E0120721F461E0C7
S1130B4084E060D2F7C001158AE0180721F461E05F
S1130B5085E058D2EFC0003428E0120721F462E0A7
S1130B6083E050D2E7C0003489E0180721F462E042
S1130B7084E048D2DFC0003928E0120721F464E0A1
S1130B8083E040D2D7C0003989E0180721F464E03B
S1130B9084E038D2CFC000392AE0120721F464E09F
S1130BA085E030D2C7C0003C88E0180721F468E033
S1130BB083E028D2BFC0003C29E0120721F468E09A
S1130BC084E020D2B7C0003A88E0180731F560E12C
S1130BD083E018D280EA98E080930E2190930F214D
S1130BE08FE195E080930C2190930D2187E195E0AE
S1130BF08093082190930921E6E0F0E284818D83BB
S1130C0085818E8386818F8380819181A281B38146
S1130C1089839A83AB83BC8355C0003A29E01207C9
S1130C2021F460E184E0EED185C0003A8AE018073F
S1130C3021F460E185E0E6D17DC0003B28E01207A5
S1130C4021F460E283E0DED175C0003B89E018073F
S1130C5021F460E284E0D6D16DC0003824E01207AC
S1130C6021F460E483E0CED165C0003A84E0180743
S1130C7021F460E485E0C6D15DC000930E21109399
S1130C800F218FE195E080930C2190930D2187E152
S1130C9095E08093082190930921E6E0F0E28481B5
S1130CA08D8385818E8386818F8380819181A281CA
S1130CB0B38189839A83AB83BC836801003A28E0BB
S1130CC0120751F460E183E09DD10F2EF0EACF2E9C
S1130CD0F8E0DF2EF02D12C080EBC81688E0D806AD
S1130CE021F460E283E08ED112C020EAC21629E02A
S1130CF0D20621F460E184E085D111C080EBC816EE
S1130D0089E0D80621F460E284E07CD108C020EABE
S1130D10C2162AE0D20619F460E185E073D1BE015F
S1130D206F5F7F4FC8017ADC6CE171E085E997E081
S1130D3062D622C000930E2110930F218FE195E01B
S1130D4080930C2190930D2187E195E080930821F5
S1130D5090930921E6E0F0E284818D8385818E837E
S1130D6086818F8380819181A281B38189839A83D3
S1130D70AB83BC836801B0CF2796CDBFDEBFDF91C4
S1130D80CF911F910F91FF90DF90CF900895CF9353
S1130D90DF93FC014115510581F180E090E020E0F2
S1130DA0DB01A80FB91F3C91A681B7818281938191
S1130DB0A80FB91F3C938281938101968283938308
S1130DC0A081B1818A179B0711F412821382828158
S1130DD09381C481D5818C179D0749F40196A81786
S1130DE0B90719F08483958302C0148215822F5F9A
S1130DF0822F90E08417950798F2DF91CF910895A0
S1130E00FC011282138214821582668377834083E5
S1130E1051830895FC018281938144815581841713
S1130E20950718F0841B950B089520813181820F5A
S1130E30931F841B950B08958F929F92AF92BF923C
S1130E40CF92DF92EF92FF920F931F93CF93DF9392
S1130E508C016A01DC011496CD91DC911597E62E84
S1130E60F72EA12CB12C842E9D2C18C0D8011696D7
S1130E70ED91FC911797EC0FFD1F8081F701819391
S1130E807F018D919C910197C817D90711F0219684
S1130E9002C0C0E0D0E0FFEFAF1ABF0AC801BADF5A
S1130EA09C01C816D90610F4282D392DA216B306B4
S1130EB0E8F221E08C159D0508F020E0822FDF91F7
S1130EC0CF911F910F91FF90EF90DF90CF90BF9043
S1130ED0AF909F908F9008950F931F93CF93DF93BC
S1130EE0EC018B0197DF9C010817190708F498019E
S1130EF02817390760F08C819D81820F931F6881C8
S1130F0079811CD58C839D838A839B8309C08C81C2
S1130F109D81820F931F6881798110D58C839D8375
S1130F20DF91CF911F910F910895682F80910E2129
S1130F3090910F21E0910C21F0910D2109959923B5
S1130F401CF081E090E008958FEF9FEF0895CF9318
S1130F50DF93FC0120E030E0C62FD0E0DE01022E5A
S1130F6002C0B595A7950A94E2F7A0FD508B2F5FB8
S1130F703F4F31962830310589F740FF0AC041FFC1
S1130F8003C0FC01658302C0FC016683FC0161832C
S1130F9002C0FC016283DF91CF910895CF93DF9368
S1130FA000D0CDB7DEB78FEF8093700080937100CF
S1130FB08093720080937300809374008093750013
S1130FC0809376008FB78A83F8949A81E0E5F0E005
S1130FD08081826080839FBF818181FFFDCF61E03A
S1130FE080E490E025D08FB78983F8949981E0E577
S1130FF0F0E080818E7F80839FBF0F900F90DF9100
S1131000CF910895CF93DF931F92CDB7DEB79FB7EB
S11310109983F8949981E82FF0E0E059FF4F6095A7
S11310208081682360839FBF0F90DF91CF910895E3
S11310301BBEFC0128ED24BF6083089504C06150E9
S11310407109810991096115710581059105B9F746
S113105008951F920F920FB60F9211248F939F93AE
S1131060AF93BF938091042190910521A091062113
S1131070B09107210196A11DB11D80930421909385
S11310800521A0930621B0930721BF91AF919F91B1
S11310908F910F900FBE0F901F9018951F920F9273
S11310A00FB60F9211248F9380911021882331F071
S11310B0813061F48091042180FD04C080E180933B
S11310C0660607C080E18093670603C080E18093D1
S11310D067068F910F900FBE0F901F9018951F9267
S11310E00F920FB60F9211242F933F934F935F9358
S11310F06F937F938F939F93AF93BF93EF93FF93DC
S1131100CF93DF931F92CDB7DEB78091A008898378
S113111041E050E0BE016F5F7F4F81E191E237DE35
S11311200F90DF91CF91FF91EF91BF91AF919F917C
S11311308F917F916F915F914F913F912F910F907C
S11311400FBE0F901F9018950F931F93813079F461
S113115000E010E020E03FE340E050E060EA70E4AB
S113116080E098E023DC81E0809310210DC000E052
S113117010E020E03FE340E050E060E87FE380E0FF
S113118098E014DC109210211F910F91089540E013
S113119052E069E171E281E191E232CE08950F9368
S11311A01F93CF9341E050E060E280E496E0CFDE0D
S11311B000E416E080E2F801868341E050E061E05B
S11311C080E096E0C4DEC1E0C093060641E050E052
S11311D061E080E496E0BBDEF801C68341E050E0C4
S11311E061E080E896E0B3DE00E816E0F801C6832B
S11311F041E050E062E080E896E0A9DE82E0F80198
S1131200868341E050E060E180E696E0A0DE80E184
S113121080936606CF911F910F9108950F931F93AA
S1131220CF93DF93CDB7DEB7C554D109CDBFDEBFB1
S11312308E010F5F1F4F85E4F80111928A95E9F73B
S113124044E450E0B80181E191E2F6DD6DE070E242
S1131250C801B7D38C01009779F4DE011196FD0122
S113126001900020E9F73197BF016A1B7B0B81E1F4
S113127091E232DE80E084C0FC0101900020E9F7B5
S11312803197AF01481B590B4132510510F040E230
S113129050E065E170E2C80187D3892B51F4B801AD
S11312A06C1B7D0B615E7F4F81E191E215DE81E075
S11312B067C04EE150E066E370E2C80175D3892B44
S11312C051F4B8016C1B7D0B635E7F4F81E191E2A9
S11312D003DE82E055C041E250E065E570E2C801FA
S11312E063D3892B51F4B8016C1B7D0B605E7F4F77
S11312F081E191E2F1DD83E043C04EE150E067E734
S113130070E2C80151D3892B51F4B8016C1B7D0BD9
S1131310635E7F4F81E191E2DFDD84E031C04DE126
S113132050E066E970E2C8013FD3892B51F4B8015B
S11313306C1B7D0B645E7F4F81E191E2CDDD85E026
S11313401FC084EB90E2B4D3DE011196FD0101903D
S11313500020E9F73197E01BF10BB39750F0B80187
S11313606A1B7B0B6F5F7F4F81E191E2B5DD80E00B
S113137007C0B8016A1B7B0B81E191E2ADDD80E01F
S1131380CB5BDF4FCDBFDEBFDF91CF911F910F91BC
S11313900895AF92BF92CF92DF92EF92FF920F9394
S11313A01F93CF93DF93182F82E0809310210F2E89
S11313B0F0E4EF2EF6E0FF2EF02D6894BB24B5F890
S11313C0F701B58268E579EA89E392E037DE0F2E0A
S11313D0C12CF6E0DF2EF02DAA24A394F601A582F9
S11313E06BEA70EB88E290E029DEC12FC695C695C2
S11313F0C695F0E2CF9FE0011124DA5F812F877058
S113140001E010E002C0000F111F8A95E2F70D837E
S113141061E074E284EF90E011DE0E83F601A682AF
S1131420F701B682DF91CF911F910F91FF90EF905A
S1131430DF90CF90BF90AF900895B0DDB0DE22E191
S113144043E160E476E080EA98E0FBDAC2E0C0932E
S1131450102120E040E065E080E09AE0C8D900E097
S113146010E020E03FE340E050E06AE774E480E00D
S11314709AE09CDAC093060A20E040E064E080E051
S113148099E0B5D900E010E020E03FE340E050E00F
S113149060E271E480E099E089DA83E080930609F0
S11314A076DEE0EAF8E0838180618383E0EAF0E0BD
S11314B0828187608283789421E041E063E080E068
S11314C098E095D921E041E064E080E099E08FD98B
S11314D080E03ADEC0E00F2EF7ECCF2EF0E2DF2EF4
S11314E0F02D0F2EF6EDEF2EF0E2FF2EF02D00EF93
S11314F010E266E573E288E090E0A0DD8FDE8130E3
S113150099F4DF92CF921F921F921F928F931F9292
S11315101F92FF92EF921F930F93B7D28DB79EB78E
S11315200C968DBF9EBFE5CFC11106C0823009F76E
S113153081E00ADEC1E0DDCFC130D9F6833021F489
S113154080E002DEC0E0D5CF843031F480E221DFD8
S113155080E0FADDC0E0CDCF853059F681E219DFB5
S113156080E0F2DDC0E0C5CF5058BB27AA270ED0DB
S113157048C139D130F03ED120F031F49F3F11F40D
S11315801EF42EC10EF4E095E7FB24C1E92F4AD1E5
S113159080F3BA17620773078407950718F071F48C
S11315A09EF562C10EF4E0950B2EBA2FA02D0B010F
S11315B0B90190010C01CA01A0011124FF27591B94
S11315C099F0593F50F4503E68F11A16F040A22F9A
S11315D0232F342F4427585FF3CF4695379527950B
S11315E0A795F0405395C9F77EF41F16BA0B620B0A
S11315F0730B840BBAF09150A1F0FF0FBB1F661F51
S1131600771F881FC2F70EC0BA0F621F731F841F93
S113161048F4879577956795B795F7959E3F08F0B9
S1131620B3CF9395880F08F09927EE0F9795879578
S113163008950CD0E6C0DED040F0D5D030F021F4CF
S11316405F3F19F0C7C0511110C1CAC0EBD098F365
S11316509923C9F35523B1F3951B550BBB27AA272F
S113166062177307840738F09F5F5F4F220F331FA1
S1131670441FAA1FA9F333D00E2E3AF0E0E830D06D
S113168091505040E695001CCAF729D0FE2F27D070
S1131690660F771F881FBB1F261737074807AB073E
S11316A0B0E809F0BB0B802DBF01FF2793585F4FB3
S11316B02AF09E3F510568F08DC0D7C05F3FECF320
S11316C0983EDCF3869577956795B795F7959F5F78
S11316D0C9F7880F911D9695879597F90895E1E0CC
S11316E0660F771F881FBB1F621773078407BA072B
S11316F020F0621B730B840BBA0BEE1F88F7E09586
S1131700089598D088F09F5790F0B92F9927B75132
S1131710A0F0D1F0660F771F881F991F1AF0BA95B1
S1131720C9F712C0B13081F09FD0B1E008959CC0D8
S1131730672F782F8827B85F39F0B93FCCF38695A7
S113174077956795B395D9F73EF490958095709504
S113175061957F4F8F4F9F4F0895E89409C097FB81
S11317603EF490958095709561957F4F8F4F9F4F74
S11317709923A9F0F92F96E9BB279395F6958795B8
S113178077956795B795F111F8CFFAF4BB0F11F47B
S113179060FF1BC06F5F7F4F8F4F9F4F16C0882322
S11317A011F096E911C0772321F09EE8872F762F58
S11317B005C0662371F096E8862F70E060E02AF099
S11317C09A95660F771F881FDAF7880F9695879585
S11317D097F9089597F99F6780E870E060E00895AD
S11317E09FEF80EC089500240A9416161706180635
S11317F00906089500240A94121613061406050611
S11318000895092E0394000C11F4882352F0BB0FA1
S113181040F4BF2B11F460FF04C06F5F7F4F8F4F04
S11318209F4F089557FD9058440F551F59F05F3F3F
S113183071F04795880F97FB991F61F09F3F79F0EE
S113184087950895121613061406551FF2CF469570
S1131850F1DF08C0161617061806991FF1CF8695F2
S11318607105610508940895E894BB2766277727D6
S1131870CB0197F908950BD0C4CFB5DF28F0BADFB8
S113188018F0952309F0A6CFABCF1124EECFCADF11
S1131890A0F3959FD1F3950F50E0551F629FF0017F
S11318A0729FBB27F00DB11D639FAA27F00DB11DD8
S11318B0AA1F649F6627B00DA11D661F829F222761
S11318C0B00DA11D621F739FB00DA11D621F839FE8
S11318D0A00D611D221F749F3327A00D611D231FBE
S11318E0849F600D211D822F762F6A2F11249F570C
S11318F050408AF0E1F088234AF0EE0FFF1FBB1F2F
S1131900661F771F881F91505040A9F79E3F5105CD
S113191070F060CFAACF5F3FECF3983EDCF386957E
S113192077956795B795F795E7959F5FC1F7FE2B78
S1131930880F911D9695879597F90895AA1BBB1B4F
S113194051E107C0AA1FBB1FA617B70710F0A61BBB
S1131950B70B881F991F5A95A9F780959095BC01DC
S1131960CD010895A1E21A2EAA1BBB1BFD010DC0D7
S1131970AA1FBB1FEE1FFF1FA217B307E407F5073B
S113198020F0A21BB30BE40BF50B661F771F881F17
S1131990991F1A9469F760957095809590959B01AD
S11319A0AC01BD01CF010895FB01DC0104C08D91A0
S11319B00190801921F441505040C8F7881B990BBD
S11319C00895FB0151915523A9F0BF01DC014D910C
S11319D045174111E1F759F4CD010190002049F078
S11319E04D9140154111C9F3FB014111EFCF81E045
S11319F090E0019708950F931F93CF93DF9300977F
S1131A0031F46115710519F480E090E039C08B015F
S1131A10EC016EE070E081E090E04CD2FC01892B97
S1131A2099F380E883830115110571F00287138708
S1131A3081E883838091192390911A23892B21F4BF
S1131A40E0931923F0931A232097C9F0C087D18714
S1131A5083818260838380911B2390911C23892B33
S1131A6071F4E0931B23F0931C2380911D23909128
S1131A701E23892B21F4E0931D23F0931E23CF0111
S1131A80DF91CF911F910F910895A0E0B0E0EAE4B7
S1131A90FDE012C4AE014B5F5F4FFA016191719199
S1131AA0AF0180911B2390911C2332D0E2E01DC42E
S1131AB00F931F93CF93DF93E0911B23F0911C238B
S1131AC0238121FF1BC08C01D0E0C0E0F80181918B
S1131AD08F0160911B2370911C23DB011896ED91FB
S1131AE0FC911997882331F00995892B79F3DFEF5D
S1131AF0CFEFECCF8AE00995892B19F08FEF9FEF98
S1131B0002C08D2F9C2FDF91CF911F910F910895CB
S1131B10ABE0B0E0EDE8FDE0BFC36C017B018A01FE
S1131B20FC0116821782838181FFBFC1CE01019619
S1131B303C01F6019381F70193FD859193FF819117
S1131B407F01882309F4ADC1853239F493FD859171
S1131B5093FF81917F01853221F4B60190E002D395
S1131B60E8CF912C212C312CFFE1F315D8F08B32E6
S1131B7079F038F4803279F08332A1F4232D206196
S1131B801DC08D3261F0803369F4232D216016C0AD
S1131B90832D8260382EE32DE4603E2E2AC0F32D7F
S1131BA0F8601DC037FC2DC020ED280F2A3040F00E
S1131BB08E32B9F436FC75C1232D2064322E19C03F
S1131BC036FE06C08AE0989E200D1124922E11C084
S1131BD0EAE02E9E200D1124222EF32DF0623F2EDA
S1131BE008C08C3621F4832D8068382E02C08836D4
S1131BF041F4F70193FD859193FF81917F01811158
S1131C00B3CF982F9F7D9554933028F40C5F1F4FCA
S1131C109FE399830DC0833631F0833771F08335A8
S1131C2009F055C020C0F801808189830E5F1F4FE1
S1131C3088248394912C530112C02801F2E04F0EA2
S1131C40511CF801A080B18036FE03C0692D70E0FC
S1131C5002C06FEF7FEFC5017AD24C018201F32DF0
S1131C60FF773F2E15C0280122E0420E511CF801D7
S1131C70A080B18036FE03C0692D70E002C06FEF12
S1131C807FEFC50152D24C01F32DF0683F2E820143
S1131C9033FC19C0822D90E088169906A0F4B60191
S1131CA080E290E05FD22A94F5CFF50137FC85916C
S1131CB037FE81915F01B60190E054D221102A943D
S1131CC021E0821A91088114910479F7E1C08436E5
S1131CD011F0893639F5F80137FE07C0608171814A
S1131CE0828193810C5F1F4F08C060817181072E30
S1131CF0000C880B990B0E5F1F4FF32DFF763F2EC0
S1131D0097FF09C090958095709561957F4F8F4F8F
S1131D109F4FF0683F2E2AE030E0A3015FD2882E67
S1131D20861844C0853731F4232D2F7EB22E2AE045
S1131D3030E025C0932D997FB92E8F36C1F018F469
S1131D40883579F0AEC0803719F0883721F0A9C002
S1131D50E92FE061BE2EB4FE0DC0FB2DF460BF2E52
S1131D6009C034FE0AC0292F2660B22E06C028E01E
S1131D7030E005C020E130E002C020E132E0F801AB
S1131D80B7FE07C060817181828193810C5F1F4F10
S1131D9006C06081718180E090E00E5F1F4FA30157
S1131DA01DD2882E8618FB2DFF773F2E36FE0DC0E0
S1131DB0232D2E7FA22E891458F434FE0BC032FC3E
S1131DC009C0832D8E7EA82E05C0B82CA32C03C079
S1131DD0B82C01C0B92CA4FE0FC0FE01E80DF11D02
S1131DE08081803321F49A2D997EA92E09C0A2FE08
S1131DF006C0B394B39404C08A2D867809F0B394D2
S1131E00A3FC10C0A0FE06C0B21480F4280C922CCF
S1131E109B180DC0B21458F4B60180E290E0A2D130
S1131E20B394F8CFB21418F42B1802C0982C212CB8
S1131E30A4FE0FC0B60180E390E094D1A2FE16C0C8
S1131E40A1FC03C088E790E002C088E590E0B601F9
S1131E500CC08A2D867851F0A1FE02C08BE201C02D
S1131E6080E2A7FC8DE2B60190E07CD1891430F4C5
S1131E70B60180E390E076D19A94F8CF8A94F30186
S1131E80E80DF11D8081B60190E06CD18110F6CF90
S1131E90222009F44ECEB60180E290E063D12A9468
S1131EA0F7CFF6018681978102C08FEF9FEF2B96C3
S1131EB0E2E10BC20F931F93CF93DF93869F8001C0
S1131EC0879F100D969F100D1124C8010DD0EC01B1
S1131ED0009721F0A80160E070E032D1CE01DF91DB
S1131EE0CF911F910F9108950F931F93CF93DF9379
S1131EF08230910510F482E090E0E0912123F0918A
S1131F00222320E030E0A0E0B0E0309719F14081D6
S1131F1051810281138148175907C8F08417950726
S1131F2069F4109731F012960C93129713961C9340
S1131F3027C0009321231093222322C021153105A9
S1131F4019F04217530718F49A01BD01EF01DF019C
S1131F50F801DBCF21153105F9F0281B390B2430AA
S1131F60310580F48A819B816115710521F0FB01A3
S1131F708283938304C08093212390932223FE01C0
S1131F80329644C0FE01E20FF31F819391932250D5
S1131F903109288339833AC020911F2330912023AB
S1131FA0232B41F4209102203091032020931F23FE
S1131FB030932023209100203091012021153105F8
S1131FC041F42DB73EB74091042050910520241BC5
S1131FD0350BE0911F23F0912023E217F307A0F4BF
S1131FE02E1B3F0B2817390778F0AC014E5F5F4F6B
S1131FF02417350748F04E0F5F1F40931F2350935B
S113200020238193919302C0E0E0F0E0CF01DF91BF
S1132010CF911F910F910895CF93DF93009709F407
S113202081C0FC01329712821382A0912123B091C6
S11320302223109781F420813181820F931F2091F4
S11320401F23309120232817390751F5E0931F23CC
S1132050F093202367C0ED0120E030E0CE17DF07C6
S113206040F44A815B819E0141155105F1F0EA017A
S1132070F5CFC283D38340815181840F951FC81744
S1132080D90759F488819981840F951F029680831A
S113209091838A819B81828393832115310529F45D
S11320A0E0932123F09322233DC0E901EA83FB83DB
S11320B049915991C40FD51FEC17FD0761F4808134
S11320C09181840F951F0296E90188839983828107
S11320D093818A839B83E0E0F0E012968D919C913A
S11320E01397009719F0FD01DC01F7CF8D919C91B6
S11320F011979D012E5F3F4F820F931F20911F2345
S1132100309120232817390769F4309729F4109265
S113211021231092222302C012821382A0931F2330
S1132120B0932023DF91CF910895FC010590615075
S113213070400110D8F7809590958E0F9F1F0895D9
S1132140DC0101C06D9341505040E0F70895FC015B
S11321506150704001900110D8F7809590958E0FD2
S11321609F1F08950F931F93CF93DF93FB01238148
S113217021FD03C08FEF9FEF2CC022FF16C04681C4
S11321805781248135814217530744F4A081B181DA
S11321909D012F5F3F4F208331838C9326813781AC
S11321A02F5F3F4F2683378314C08B01EC01FB0163
S11321B00084F185E02D0995892BE1F6D801169666
S11321C08D919C911797019616968D939C931797D2
S11321D0CE01DF91CF911F910F910895FA01AA27A3
S11321E0283051F1203181F1E8946F936E7F6E5F56
S11321F07F4F8F4F9F4FAF4FB1E03ED0B4E03CD004
S1132200670F781F891F9A1FA11D680F791F8A1FE6
S1132210911DA11D6A0F711D811D911DA11D20D04D
S113222009F468943F912AE0269F11243019305D07
S11322303193DEF6CF010895462F4770405D4193F8
S1132240B3E00FD0C9F7F6CF462F4F70405D4A3345
S113225018F0495D31FD4052419302D0A9F7EACF0D
S1132260B4E0A6959795879577956795BA95C9F73C
S113227000976105710508959B01AC010A2E06942F
S11322805795479537952795BA95C9F7620F731FE8
S1132290841F951FA01D08952F923F924F925F9225
S11322A06F927F928F929F92AF92BF92CF92DF9262
S11322B0EF92FF920F931F93CF93DF93CDB7DEB7C7
S11322C0CA1BDB0BCDBFDEBF09942A883988488836
S11322D05F846E847D848C849B84AA84B984C8843E
S11322E0DF80EE80FD800C811B81AA81B981CE0F35
S11122F0D11DCDBFDEBFED010895F894FFCFE0
S11322FE00002323200000C20100030001554148C1
S113230E5F435257005541485F4352575F4445500F
S113231E4C4F594D454E545F434845434B5F5645CC
S113232E5253494F4E005541485F4352575F6172B5
S113233E6D5F7061796C6F61645F6465706C6F79E9
S113234E6D656E74005541485F4352575F646973FF
S113235E61726D5F7061796C6F61645F6465706CDE
S113236E6F796D656E74005541485F4352575F64D3
S113237E65706C6F795F7061796C6F61645F707298
S113238E696D617279005541485F4352575F6465C8
S113239E706C6F795F7061796C6F61645F62616399
S11323AE6B7570004E6F742061207265616C2063D2
S11323BE6F6D6D616E64004E4F5420464F52204631
S11323CE4C49474854004465706C6F796D656E7462
S11323DE20636F6E74726F6C2073797374656D0005
S11323EE2573205625692E25692E2569202D202535
S10723FE730A00005A
S9030000FC
