:10000000FDC0000018C1000016C1000014C10000AE
:1000100012C1000010C100000EC100000CC10000A0
:100020000AC1000008C1000006C1000004C10000B0
:1000300002C1000000C10000FEC00000FCC00000C2
:10004000FAC00000F8C00000F6C00000F4C00000D4
:10005000F2C00000F0C00000EEC00000ECC00000E4
:10006000EAC000000C943608E6C00000E4C00000BE
:10007000E2C00000E0C00000DEC00000DCC0000004
:10008000DAC00000D8C00000D6C00000D4C0000014
:10009000D2C00000D0C00000CEC00000CCC0000024
:1000A000CAC00000C8C00000C6C00000C4C0000034
:1000B000C2C00000C0C00000BEC00000B9C7000040
:1000C000BAC00000B8C00000B6C00000B4C0000054
:1000D000B2C00000B0C00000AEC00000ACC0000064
:1000E000AAC00000A8C00000A6C00000A4C0000074
:1000F000A2C00000A0C000009EC000009CC0000084
:100100009AC0000098C0000096C0000094C0000093
:1001100092C0000090C000008EC00000A6C0000089
:10012000D2C00000FEC000002AC1000084C0000050
:1001300082C0000080C000007EC000007CC00000C3
:100140007AC0000078C0000076C0000074C00000D3
:1001500072C0000070C000006EC000006CC00000E3
:100160006AC0000068C0000066C0000064C00000F3
:1001700062C0000060C000005EC000005CC0000003
:100180005AC0000058C0000056C0000054C0000013
:1001900052C0000050C000004EC000004CC0000023
:1001A0004AC0000048C0000046C0000044C0000033
:1001B00042C0000040C000003EC000003CC0000043
:1001C0003AC0000038C0000036C0000034C0000053
:1001D00032C0000030C000002EC000002CC0000063
:1001E0002AC0000028C0000026C0000024C0000073
:1001F00022C0000020C000001EC0000011241FBE4D
:10020000CFEFCDBFDFE2DEBF10E2A0E0B0E2E0EE74
:10021000F1E202C005900D92A63FB107D9F723E2A3
:10022000A6EFB0E201C01D92A131B207E1F70E9432
:10023000DB090C94EE10E4CECF93DF931F92CDB781
:10024000DEB78091FC209091FD20E091F620F091A6
:10025000F720BE016F5F7F4F09958981082E000C42
:10026000990B0F90DF91CF9108951F920F920FB6C7
:100270000F9211242F933F934F935F936F937F932C
:100280008F939F93AF93BF93EF93FF93409124027B
:1002900050912502E091F820F091F92061E080E092
:1002A00092E00995FF91EF91BF91AF919F918F914E
:1002B0007F916F915F914F913F912F910F900FBE62
:1002C0000F901F9018951F920F920FB60F92112446
:1002D0002F933F934F935F936F937F938F939F934E
:1002E000AF93BF93EF93FF9340912C0250912D0257
:1002F000E091F820F091F92062E080E092E0099529
:10030000FF91EF91BF91AF919F918F917F916F91ED
:100310005F914F913F912F910F900FBE0F901F90C3
:1003200018951F920F920FB60F9211242F933F939F
:100330004F935F936F937F938F939F93AF93BF93ED
:10034000EF93FF934091340250913502E091F820F1
:10035000F091F92064E080E092E00995FF91EF913F
:10036000BF91AF919F918F917F916F915F914F91CD
:100370003F912F910F900FBE0F901F9018951F92D5
:100380000F920FB60F9211242F933F934F935F93C9
:100390006F937F938F939F93AF93BF93EF93FF934D
:1003A00040913C0250913D02E091F820F091F920FB
:1003B00068E080E092E00995FF91EF91BF91AF91E5
:1003C0009F918F917F916F915F914F913F912F916D
:1003D0000F900FBE0F901F901895FC01918195FF13
:1003E000FDCF608380E090E00895FC019181992326
:1003F000ECF7808108954F925F926F927F928F9277
:100400009F92AF92BF92EF92FF920F931F93CF9361
:100410007C014A015B0128013901FC01848182FFD2
:1004200016C0D901C801689412F8B695A79597959A
:1004300087951694D1F7B901A801032E36E1769578
:100440006795579547953A95D1F7302D15C0D90145
:10045000C801689413F8B695A79597958795169453
:10046000D1F7B901A801032E37E176956795579525
:1004700047953A95D1F7302D88159905AA05BB0502
:1004800008F4A6C084169506A606B70608F4A2C00E
:10049000F701848182FD04C0880C991CAA1CBB1C36
:1004A000C301B201A50194010E94530C2F3F3105F5
:1004B0004105510508F490C08FEF90E0A0E0B0E056
:1004C000C9EF05C0281739074A075B0758F0880F9E
:1004D000991FAA1FBB1FCD3F0CF48160CF5FC730AF
:1004E00089F74FC0CC230CF04CC0D501C401880F54
:1004F000991FAA1FBB1F880F991FAA1FBB1F880F18
:10050000991FAA1FBB1F481A590A6A0A7B0ACE3FC5
:10051000F4F48DEF9FEF8C1B9109C7FD939504C0F8
:10052000440C551C661C771C8A95D2F7D501C40172
:10053000B695A79597958795BC01CD01640D751D5E
:10054000861D971DA50194010E94530C37C083E0BE
:100550008C0FA501940104C0220F331F441F551FA7
:100560008A95D2F7DA01C901B695A795979587952F
:10057000BC01CD01640D751D861D971D0E94530C95
:100580001DC083E08C0FA501940104C0220F331F0E
:10059000441F551F8A95D2F7DA01C901B695A79570
:1005A00097958795BC01CD01640D751D861D971D1E
:1005B0000E94530C2150310941095109832F8F703A
:1005C000C295C07FC82BF701C783268381E018C07E
:1005D00080E016C080E014C0D501C401880F991FC7
:1005E000AA1FBB1F880F991FAA1FBB1F880F991F27
:1005F000AA1FBB1F481A590A6A0A7B0AC9EF89CF8A
:10060000CF911F910F91FF90EF90BF90AF909F906F
:100610008F907F906F905F904F9008950F931F93EE
:10062000CF93DF93EC018B01009709F4BEC0803CAF
:10063000910521F460E180E0D4D4B7C0C11584E015
:10064000D80721F464E080E0CCD4AFC0C038E1E04A
:10065000DE0721F462E080E0C4D4A7C0C115F1E058
:10066000DF0721F461E080E0BCD49FC0C03883E0A4
:10067000D80721F461E081E0B4D497C0C115E2E06D
:10068000DE0721F462E081E0ACD48FC0C032F3E039
:10069000DF0721F464E082E0A4D487C0C11588E0BC
:1006A000D80721F461E083E09CD47FC0C115E9E064
:1006B000DE0721F461E084E094D477C0C115FAE04C
:1006C000DF0721F461E085E08CD46FC0C03488E09E
:1006D000D80721F462E083E084D467C0C034E9E045
:1006E000DE0721F462E084E07CD45FC0C039F8E02A
:1006F000DF0721F464E083E074D457C0C03989E097
:10070000D80721F464E084E06CD44FC0C039EAE03B
:10071000DE0721F464E085E064D447C0C03CF8E023
:10072000DF0721F468E083E05CD43FC0C03C89E08F
:10073000D80721F468E084E054D437C0C03AE8E038
:10074000DE0721F460E183E04CD42FC0C03AF9E029
:10075000DF0721F460E184E044D427C0C03A8AE096
:10076000D80721F460E185E03CD41FC0C03BE8E03D
:10077000DE0721F460E283E034D417C0C03BF9E027
:10078000DF0721F460E284E02CD40FC0C03884E09D
:10079000D80721F460E483E024D407C0C03AE4E041
:1007A000DE0719F460E485E01CD48D818F738D839E
:1007B000F80195818481892B9681911198E0892B8C
:1007C0008D83F801408151816281738100E018E4DA
:1007D00028EE31E0CE010FDE9C8198609C839C81E5
:1007E00090619C83DF91CF911F910F9108950F939A
:1007F0001F93CF93DF93EC01062F142F009709F47A
:10080000BEC0803C910521F460E180E0EAD3B7C02E
:10081000C11584E0D80721F464E080E0E2D3AFC0E2
:10082000C03881E0D80721F462E080E0DAD3A7C0C5
:10083000C11581E0D80721F461E080E0D2D39FC0E8
:10084000C03883E0D80721F461E081E0CAD397C0C3
:10085000C11582E0D80721F462E081E0C2D38FC0E5
:10086000C03283E0D80721F464E082E0BAD387C0C5
:10087000C11588E0D80721F461E083E0B2D37FC0DE
:10088000C11589E0D80721F461E084E0AAD377C0DC
:10089000C1158AE0D80721F461E085E0A2D36FC0DA
:1008A000C03488E0D80721F462E083E09AD367C0BF
:1008B000C03489E0D80721F462E084E092D35FC0BD
:1008C000C03988E0D80721F464E083E08AD357C0B8
:1008D000C03989E0D80721F464E084E082D34FC0B6
:1008E000C0398AE0D80721F464E085E07AD347C0B4
:1008F000C03C88E0D80721F468E083E072D33FC0B1
:10090000C03C89E0D80721F468E084E06AD337C0AE
:10091000C03A88E0D80721F460E183E062D32FC0B9
:10092000C03A89E0D80721F460E184E05AD327C0B7
:10093000C03A8AE0D80721F460E185E052D31FC0B5
:10094000C03B88E0D80721F460E283E04AD317C0B7
:10095000C03B89E0D80721F460E284E042D30FC0B5
:10096000C03884E0D80721F460E483E03AD307C0BC
:10097000C03A84E0D80719F460E485E032D364E03B
:10098000802F2FD387E0888380E1189FA001112456
:1009900043604983DF91CF911F910F910895CF92CA
:1009A000DF92EF92FF920F931F93CF93DF93EC01AF
:1009B000CB01BA016801790120E030E040E854E45D
:1009C000FBD69B01AC0160E074E284EF9BE4D2D5DE
:1009D00020E030E040E85FE368D534D66EA37FA323
:1009E0006EA17FA180E090E059D6A7019601E4D6E0
:1009F00029D668A779A788A599A58AA79BA788A5BE
:100A000099A58CA79DA788A599A58EA79FA7DF91DB
:100A1000CF911F910F91FF90EF90DF90CF900895AD
:100A2000CF93DF93EB01E1DC8883DF91CF910895D1
:100A3000D4CC0895CF92DF92FF920F931F93CF9360
:100A4000DF93CDB7DEB72797CDBFDEBF8C01F22E87
:100A5000842F8770CC24C394D12CB60102C0660FBA
:100A6000771F8A95E2F746954695469520E2429F84
:100A7000C001112441E050E09A5F58D28F2D877059
:100A8000B60102C0660F771F8A95E2F7F694F694D6
:100A9000F69420E2F29EC001112440E050E09A5FFB
:100AA00045D20115110509F43EC1003C110521F4A0
:100AB00060E180E096D237C1011584E0180721F487
:100AC00064E080E08ED22FC1003821E0120721F4CB
:100AD00062E080E086D227C1011581E0180721F489
:100AE00061E080E07ED21FC1003823E0120721F4CC
:100AF00061E081E076D217C1011582E0180721F488
:100B000062E081E06ED20FC1003223E0120721F4CF
:100B100064E082E066D207C1011588E0180721F47D
:100B200061E083E05ED2FFC0011529E0120721F4E5
:100B300061E084E056D2F7C001158AE0180721F47D
:100B400061E085E04ED2EFC0003428E0120721F4C6
:100B500062E083E046D2E7C0003489E0180721F460
:100B600062E084E03ED2DFC0003928E0120721F4C1
:100B700064E083E036D2D7C0003989E0180721F459
:100B800064E084E02ED2CFC000392AE0120721F4BD
:100B900064E085E026D2C7C0003C88E0180721F455
:100BA00068E083E01ED2BFC0003C29E0120721F4B8
:100BB00068E084E016D2B7C0003A88E0180731F543
:100BC00060E183E00ED280EA98E08093FC2090936D
:100BD000FD2088E195E08093FA209093FB2080E14E
:100BE00095E08093F6209093F720E6E0F0E2848190
:100BF0008D8385818E8386818F8380819181A2817F
:100C0000B38189839A83AB83BC8355C0003A29E0C2
:100C1000120721F460E184E0E4D185C0003A8AE063
:100C2000180721F460E185E0DCD17DC0003B28E0BD
:100C3000120721F460E283E0D4D175C0003B89E063
:100C4000180721F460E284E0CCD16DC0003824E0C4
:100C5000120721F460E483E0C4D165C0003A84E067
:100C6000180721F460E485E0BCD15DC00093FC204E
:100C70001093FD2088E195E08093FA209093FB206B
:100C800080E195E08093F6209093F720E6E0F0E293
:100C900084818D8385818E8386818F8380819181FC
:100CA000A281B38189839A83AB83BC836801003AB4
:100CB00028E0120751F460E183E093D10F2EF0EAAF
:100CC000CF2EF8E0DF2EF02D12C080EBC81688E0A2
:100CD000D80621F460E283E084D112C020EAC21673
:100CE00029E0D20621F460E184E07BD111C080EBE1
:100CF000C81689E0D80621F460E284E072D108C009
:100D000020EAC2162AE0D20619F460E185E069D132
:100D1000BE016F5F7F4FC80181DC6CE171E084E848
:100D200097E00AD622C00093FC201093FD2088E1B2
:100D300095E08093FA209093FB2080E195E08093EA
:100D4000F6209093F720E6E0F0E284818D838581A0
:100D50008E8386818F8380819181A281B3818983F3
:100D60009A83AB83BC836801B0CF2796CDBFDEBF2B
:100D7000DF91CF911F910F91FF90DF90CF90089559
:100D8000CF93DF93FC014115510581F180E090E0A4
:100D900020E0DB01A80FB91F3C91A681B7818281B9
:100DA0009381A80FB91F3C9382819381019682831E
:100DB0009383A081B1818A179B0711F41282138259
:100DC00082819381C481D5818C179D0749F4019656
:100DD000A817B90719F08483958302C0148215827D
:100DE0002F5F822F90E08417950798F2DF91CF91C3
:100DF0000895FC0182819381448155818417950770
:100E000018F0841B950B089520813181820F931F68
:100E1000841B950B08958F929F92AF92BF92CF92B1
:100E2000DF92EF92FF920F931F93CF93DF938C018A
:100E30006A01DC011496CD91DC911597E62EF72E10
:100E4000A12CB12C842E9D2C18C0D8011696ED91A2
:100E5000FC911797EC0FFD1F8081F70181937F01B3
:100E60008D919C910197C817D90711F0219602C066
:100E7000C0E0D0E0FFEFAF1ABF0AC801BADF9C01A3
:100E8000C816D90610F4282D392DA216B306E8F29B
:100E900021E08C159D0508F020E0822FDF91CF9195
:100EA0001F910F91FF90EF90DF90CF90BF90AF9088
:100EB0009F908F9008950F931F93CF93DF93EC0132
:100EC0008B0197DF9C010817190708F49801281770
:100ED000390760F08C819D81820F931F6881798131
:100EE000CED48C839D838A839B8309C08C819D8112
:100EF000820F931F68817981C2D48C839D83DF9197
:100F0000CF911F910F910895682F8091FC209091AF
:100F1000FD20E091FA20F091FB20099599231CF027
:100F200081E090E008958FEF9FEF0895CF93DF93D6
:100F3000FC0120E030E0C62FD0E0DE01022E02C02E
:100F4000B595A7950A94E2F7A0FD508B2F5F3F4F10
:100F500031962830310589F740FF0AC041FF03C0B0
:100F6000FC01658302C0FC016683FC01618302C051
:100F7000FC016283DF91CF910895CF93DF9300D07E
:100F8000CDB7DEB78FEF80937000809371008093B0
:100F90007200809373008093740080937500809337
:100FA00076008FB78A83F8949A81E0E5F0E080813B
:100FB000826080839FBF818181FFFDCF61E080E4FB
:100FC00090E025D08FB78983F8949981E0E5F0E02F
:100FD00080818E7F80839FBF0F900F90DF91CF9194
:100FE0000895CF93DF931F92CDB7DEB79FB7998354
:100FF000F8949981E82FF0E0E059FF4F60958081E7
:10100000682360839FBF0F90DF91CF9108951BBE2F
:10101000FC0128ED24BF6083089504C0615071096C
:10102000810991096115710581059105B9F7089547
:101030001F920F920FB60F9211248F938091FE2072
:10104000882319F0813029F008C080E1809366067A
:1010500007C080E18093670603C080E18093650646
:101060008F910F900FBE0F901F9018951F920F92A7
:101070000FB60F9211242F933F934F935F936F936B
:101080007F938F939F93AF93BF93EF93FF93CF93F0
:10109000DF931F92CDB7DEB78091A008898341E02E
:1010A00050E0BE016F5F7F4F8FEF90E269DE0F90DF
:1010B000DF91CF91FF91EF91BF91AF919F918F9170
:1010C0007F916F915F914F913F912F910F900FBE44
:1010D0000F901F9018950F931F93813079F400E0C3
:1010E00010E020E03FE340E050E060EA70E480E0A0
:1010F00098E055DC81E08093FE200DC000E010E018
:1011000020E03FE340E050E060E87FE380E098E0EB
:1011100046DC1092FE201F910F910895EF92FF92EE
:101120000F931F93CF9341E050E060E280E496E09C
:10113000FDDE00E416E080E2F801868341E050E045
:1011400061E080E096E0F2DEC1E0C093060641E097
:1011500050E061E080E496E0E9DEF801C68341E01A
:1011600050E061E080E696E0E1DE00E616E0F8019E
:10117000C68341E050E062E080E896E0D7DE0F2EC3
:10118000F0E8EF2EF6E0FF2EF02D82E0F7018683E7
:1011900041E050E061E080E896E0C8DEF701C683F8
:1011A00041E050E060E180E696E0C0DE80E1F801D9
:1011B0008683CF911F910F91FF90EF9008950F9329
:1011C0001F93CF93DF93CDB7DEB7C554D109CDBF01
:1011D000DEBF8E010F5F1F4F85E4F80111928A95E3
:1011E000E9F744E450E0B8018FEF90E214DE6DE0DF
:1011F00070E2C80187D38C01009779F4DE01119663
:10120000FD0101900020E9F73197BF016A1B7B0BBC
:101210008FEF90E250DE80E074C041E250E065E183
:1012200070E263D3892B51F4B8016C1B7D0B605EB7
:101230007F4F8FEF90E23FDE81E063C04FE150E0EF
:1012400067E370E2C80151D3892B51F4B8016C1BDC
:101250007D0B625E7F4F8FEF90E22DDE82E051C00A
:1012600042E250E067E570E2C8013FD3892B51F4B8
:10127000B8016C1B7D0B6F5D7F4F8FEF90E21BDE23
:1012800083E03FC04FE150E06AE770E2C8012DD330
:10129000892B51F4B8016C1B7D0B625E7F4F8FEF81
:1012A00090E209DE84E02DC04EE150E06AE970E290
:1012B000C8011BD3892B51F4B8016C1B7D0B635EF5
:1012C0007F4F8FEF90E2F7DD85E01BC0FE01319686
:1012D00001900020E9F73197E01BF10BB39740F044
:1012E000B8016C1B7D0B8FEF90E2E5DD80E009C05B
:1012F000CE010196B801681B790B8FEF90E2DBDD20
:1013000080E0CB5BDF4FCDBFDEBFDF91CF911F9180
:101310000F910895AF92BF92CF92DF92EF92FF921A
:101320000F931F93CF93DF93182F0F2EF0E4EF2E20
:10133000F6E0FF2EF02D6894BB24B5F8F701B582D6
:1013400068E579EA89E392E068DE0F2EC12CF6E0C9
:10135000DF2EF02DAA24A394F601A5826BEA70EB90
:1013600088E290E05ADEC12FC695C695C695F0E298
:10137000CF9FE0011124DA5F812F877001E010E038
:1013800002C0000F111F8A95E2F70D8361E074E23D
:1013900084EF90E042DE0E83F601A682F701B6826A
:1013A000DF91CF911F910F91FF90EF90DF90CF9041
:1013B000BF90AF900895E1DDB1DE22E143E160E44A
:1013C00076E080EA98E036DB40E065E080E09AE095
:1013D0000EDA00E010E020E03FE340E050E060E2A1
:1013E00071E480E09AE0DBDAE0E0FAE086818C608C
:1013F0008683E0EAF8E0838180628383E0EAF0E0BC
:10140000828187608283789441E063E080E098E0A5
:10141000EED941E064E080E099E0E9D980E05BDE6C
:10142000C0E00F2EF9EBCF2EF0E2DF2EF02D0F2EC5
:10143000F8ECEF2EF0E2FF2EF02D02EE10E2BFDE10
:10144000813099F4DF92CF921F921F921F928F9357
:101450001F921F92FF92EF921F930F93B7D28DB7F7
:101460009EB70C968DBF9EBFEACFC11106C08230D9
:1014700031F781E030DEC1E0E2CFC13001F78330E7
:1014800021F480E028DEC0E0DACF843031F481E25C
:1014900041DF80E020DEC0E0D2CF853081F680E2FF
:1014A00039DF80E018DEC0E0CACF5058BB27AA273A
:1014B0000ED048C139D130F03ED120F031F49F3FF9
:1014C00011F41EF42EC10EF4E095E7FB24C1E92FC0
:1014D0004AD180F3BA17620773078407950718F09B
:1014E00071F49EF562C10EF4E0950B2EBA2FA02D7B
:1014F0000B01B90190010C01CA01A0011124FF27C1
:10150000591B99F0593F50F4503E68F11A16F040BB
:10151000A22F232F342F4427585FF3CF46953795BA
:101520002795A795F0405395C9F77EF41F16BA0B7F
:10153000620B730B840BBAF09150A1F0FF0FBB1F2D
:10154000661F771F881FC2F70EC0BA0F621F731F76
:10155000841F48F4879577956795B795F7959E3FD3
:1015600008F0B3CF9395880F08F09927EE0F979561
:10157000879508950CD0E6C0DED040F0D5D030F08D
:1015800021F45F3F19F0C7C0511110C1CAC0EBD0A0
:1015900098F39923C9F35523B1F3951B550BBB273A
:1015A000AA2762177307840738F09F5F5F4F220FE7
:1015B000331F441FAA1FA9F333D00E2E3AF0E0E8E0
:1015C00030D091505040E695001CCAF729D0FE2F2C
:1015D00027D0660F771F881FBB1F261737074807BE
:1015E000AB07B0E809F0BB0B802DBF01FF27935874
:1015F0005F4F2AF09E3F510568F08DC0D7C05F3F16
:10160000ECF3983EDCF3869577956795B795F7955B
:101610009F5FC9F7880F911D9695879597F9089553
:10162000E1E0660F771F881FBB1F621773078407EF
:10163000BA0720F0621B730B840BBA0BEE1F88F7FE
:10164000E095089598D088F09F5790F0B92F99278A
:10165000B751A0F0D1F0660F771F881F991F1AF0BD
:10166000BA95C9F712C0B13081F09FD0B1E00895AA
:101670009CC0672F782F8827B85F39F0B93FCCF32B
:10168000869577956795B395D9F73EF490958095B3
:10169000709561957F4F8F4F9F4F0895E89409C0D3
:1016A00097FB3EF490958095709561957F4F8F4F95
:1016B0009F4F9923A9F0F92F96E9BB279395F695AB
:1016C000879577956795B795F111F8CFFAF4BB0F29
:1016D00011F460FF1BC06F5F7F4F8F4F9F4F16C08D
:1016E000882311F096E911C0772321F09EE8872F17
:1016F000762F05C0662371F096E8862F70E060E0D3
:101700002AF09A95660F771F881FDAF7880F96954B
:10171000879597F9089597F99F6780E870E060E0F2
:1017200008959FEF80EC089500240A94161617067A
:1017300018060906089500240A94121613061406C2
:1017400005060895092E0394000C11F4882352F025
:10175000BB0F40F4BF2B11F460FF04C06F5F7F4FDD
:101760008F4F9F4F089557FD9058440F551F59F0C4
:101770005F3F71F04795880F97FB991F61F09F3F7E
:1017800079F087950895121613061406551FF2CFA7
:101790004695F1DF08C0161617061806991FF1CFF7
:1017A00086957105610508940895E894BB2766271E
:1017B0007727CB0197F908950BD0C4CFB5DF28F078
:1017C000BADF18F0952309F0A6CFABCF1124EECFE6
:1017D000CADFA0F3959FD1F3950F50E0551F629F8C
:1017E000F001729FBB27F00DB11D639FAA27F00D7A
:1017F000B11DAA1F649F6627B00DA11D661F829FA1
:101800002227B00DA11D621F739FB00DA11D621F85
:10181000839FA00D611D221F749F3327A00D611DA2
:10182000231F849F600D211D822F762F6A2F112484
:101830009F5750408AF0E1F088234AF0EE0FFF1FD7
:10184000BB1F661F771F881F91505040A9F79E3F0E
:10185000510570F060CFAACF5F3FECF3983EDCF308
:10186000869577956795B795F795E7959F5FC1F74B
:10187000FE2B880F911D9695879597F90895AA1BC1
:10188000BB1B51E107C0AA1FBB1FA617B70710F06B
:10189000A61BB70B881F991F5A95A9F7809590959D
:1018A000BC01CD010895A1E21A2EAA1BBB1BFD01AC
:1018B0000DC0AA1FBB1FEE1FFF1FA217B307E4072F
:1018C000F50720F0A21BB30BE40BF50B661F771F87
:1018D000881F991F1A9469F7609570958095909567
:1018E0009B01AC01BD01CF010895FB01DC0104C0E7
:1018F0008D910190801921F441505040C8F7881B08
:10190000990B0895FB0151915523A9F0BF01DC010A
:101910004D9145174111E1F759F4CD010190002097
:1019200049F04D9140154111C9F3FB014111EFCF31
:1019300081E090E0019708950F931F93CF93DF9379
:10194000009731F46115710519F480E090E039C019
:101950008B01EC016EE070E081E090E01CD2FC01B4
:10196000892B99F380E883830115110571F00287B3
:10197000138781E883838091072390910823892B23
:1019800021F4E0930723F09308232097C9F0C08740
:10199000D1878381826083838091092390910A2378
:1019A000892B71F4E0930923F0930A2380910B2390
:1019B00090910C23892B21F4E0930B23F0930C23BB
:1019C000CF01DF91CF911F910F910895A0E0B0E07A
:1019D000EBEEFCE0E2C3AE014B5F5F4FFA016191B9
:1019E0007191AF018091092390910A2302D0E2E026
:1019F000EDC3ABE0B0E0EEEFFCE0BFC36C017B01F8
:101A00008A01FC0116821782838181FFBFC1CE014A
:101A100001963C01F6019381F70193FD859193FFB7
:101A200081917F01882309F4ADC1853239F493FD9A
:101A3000859193FF81917F01853221F4B60190E079
:101A400002D3E8CF912C212C312CFFE1F315D8F0F3
:101A50008B3279F038F4803279F08332A1F4232D7F
:101A600020611DC08D3261F0803369F4232D216027
:101A700016C0832D8260382EE32DE4603E2E2AC0EE
:101A8000F32DF8601DC037FC2DC020ED280F2A3043
:101A900040F08E32B9F436FC75C1232D2064322E0D
:101AA00019C036FE06C08AE0989E200D1124922EA1
:101AB00011C0EAE02E9E200D1124222EF32DF0629B
:101AC0003F2E08C08C3621F4832D8068382E02C04A
:101AD000883641F4F70193FD859193FF81917F0151
:101AE0008111B3CF982F9F7D9554933028F40C5FCC
:101AF0001F4F9FE399830DC0833631F0833771F018
:101B0000833509F055C020C0F801808189830E5FBC
:101B10001F4F88248394912C530112C02801F2E0B6
:101B20004F0E511CF801A080B18036FE03C0692D14
:101B300070E002C06FEF7FEFC5017AD24C018201E5
:101B4000F32DFF773F2E15C0280122E0420E511CD5
:101B5000F801A080B18036FE03C0692D70E002C09C
:101B60006FEF7FEFC50152D24C01F32DF0683F2E8D
:101B7000820133FC19C0822D90E088169906A0F4EA
:101B8000B60180E290E05FD22A94F5CFF50137FCF0
:101B9000859137FE81915F01B60190E054D221100A
:101BA0002A9421E0821A91088114910479F7E1C006
:101BB000843611F0893639F5F80137FE07C06081A7
:101BC0007181828193810C5F1F4F08C06081718198
:101BD000072E000C880B990B0E5F1F4FF32DFF761D
:101BE0003F2E97FF09C090958095709561957F4F26
:101BF0008F4F9F4FF0683F2E2AE030E0A3015FD265
:101C0000882E861844C0853731F4232D2F7EB22EBE
:101C10002AE030E025C0932D997FB92E8F36C1F090
:101C200018F4883579F0AEC0803719F0883721F084
:101C3000A9C0E92FE061BE2EB4FE0DC0FB2DF460FB
:101C4000BF2E09C034FE0AC0292F2660B22E06C05E
:101C500028E030E005C020E130E002C020E132E0C1
:101C6000F801B7FE07C060817181828193810C5FAA
:101C70001F4F06C06081718180E090E00E5F1F4FB2
:101C8000A3011DD2882E8618FB2DFF773F2E36FE2E
:101C90000DC0232D2E7FA22E891458F434FE0BC0C4
:101CA00032FC09C0832D8E7EA82E05C0B82CA32C33
:101CB00003C0B82C01C0B92CA4FE0FC0FE01E80D72
:101CC000F11D8081803321F49A2D997EA92E09C0BF
:101CD000A2FE06C0B394B39404C08A2D867809F09E
:101CE000B394A3FC10C0A0FE06C0B21480F4280C6C
:101CF000922C9B180DC0B21458F4B60180E290E00B
:101D0000A2D1B394F8CFB21418F42B1802C0982CB7
:101D1000212CA4FE0FC0B60180E390E094D1A2FE76
:101D200016C0A1FC03C088E790E002C088E590E0FF
:101D3000B6010CC08A2D867851F0A1FE02C08BE25C
:101D400001C080E2A7FC8DE2B60190E07CD189144D
:101D500030F4B60180E390E076D19A94F8CF8A947B
:101D6000F301E80DF11D8081B60190E06CD1811086
:101D7000F6CF222009F44ECEB60180E290E063D186
:101D80002A94F7CFF6018681978102C08FEF9FEFEB
:101D90002B96E2E10BC20F931F93CF93DF93869FA5
:101DA0008001879F100D969F100D1124C8010DD042
:101DB000EC01009721F0A80160E070E032D1CE0183
:101DC000DF91CF911F910F9108950F931F93CF93A0
:101DD000DF938230910510F482E090E0E0910F23D0
:101DE000F091102320E030E0A0E0B0E0309719F14E
:101DF000408151810281138148175907C8F0841727
:101E0000950769F4109731F012960C931297139678
:101E10001C9327C000930F231093102322C0211579
:101E2000310519F04217530718F49A01BD01EF016B
:101E3000DF01F801DBCF21153105F9F0281B390B43
:101E40002430310580F48A819B816115710521F070
:101E5000FB018283938304C080930F23909310230C
:101E6000FE01329644C0FE01E20FF31F819391936D
:101E700022503109288339833AC020910D233091B3
:101E80000E23232B41F42091022030910320209334
:101E90000D2330930E232091002030910120211535
:101EA000310541F42DB73EB74091042050910520F3
:101EB000241B350BE0910D23F0910E23E217F3075D
:101EC000A0F42E1B3F0B2817390778F0AC014E5FAA
:101ED0005F4F2417350748F04E0F5F1F40930D23C7
:101EE00050930E238193919302C0E0E0F0E0CF0184
:101EF000DF91CF911F910F910895CF93DF930097BA
:101F000009F481C0FC01329712821382A0910F2341
:101F1000B0911023109781F420813181820F931F9B
:101F200020910D2330910E232817390751F5E093A6
:101F30000D23F0930E2367C0ED0120E030E0CE17B3
:101F4000DF0740F44A815B819E0141155105F1F0A4
:101F5000EA01F5CFC283D38340815181840F951F5D
:101F6000C817D90759F488819981840F951F029663
:101F7000808391838A819B8182839383211531059C
:101F800029F4E0930F23F09310233DC0E901EA8385
:101F9000FB8349915991C40FD51FEC17FD0761F4DC
:101FA00080819181840F951F0296E901888399832E
:101FB000828193818A839B83E0E0F0E012968D9189
:101FC0009C911397009719F0FD01DC01F7CF8D91DB
:101FD0009C9111979D012E5F3F4F820F931F20917F
:101FE0000D2330910E232817390769F4309729F40F
:101FF00010920F231092102302C012821382A0931A
:102000000D23B0930E23DF91CF910895FC0105902D
:10201000615070400110D8F7809590958E0F9F1FEA
:102020000895DC0101C06D9341505040E0F70895E0
:10203000FC016150704001900110D8F78095909597
:102040008E0F9F1F08950F931F93CF93DF93FB0174
:10205000238121FD03C08FEF9FEF2CC022FF16C00C
:1020600046815781248135814217530744F4A0816A
:10207000B1819D012F5F3F4F208331838C93268157
:1020800037812F5F3F4F2683378314C08B01EC01CC
:10209000FB010084F185E02D0995892BE1F6D8013B
:1020A00016968D919C911797019616968D939C93F9
:1020B0001797CE01DF91CF911F910F910895FA01EB
:1020C000AA27283051F1203181F1E8946F936E7F77
:1020D0006E5F7F4F8F4F9F4FAF4FB1E03ED0B4E068
:1020E0003CD0670F781F891F9A1FA11D680F791FA9
:1020F0008A1F911DA11D6A0F711D811D911DA11DBA
:1021000020D009F468943F912AE0269F11243019C9
:10211000305D3193DEF6CF010895462F4770405D64
:102120004193B3E00FD0C9F7F6CF462F4F70405D13
:102130004A3318F0495D31FD4052419302D0A9F76E
:10214000EACFB4E0A6959795879577956795BA9568
:10215000C9F700976105710508959B01AC010A2E2E
:1021600006945795479537952795BA95C9F7620F05
:10217000731F841F951FA01D08952F923F924F92A9
:102180005F926F927F928F929F92AF92BF92CF9207
:10219000DF92EF92FF920F931F93CF93DF93CDB710
:1021A000DEB7CA1BDB0BCDBFDEBF09942A88398896
:1021B00048885F846E847D848C849B84AA84B984DF
:1021C000C884DF80EE80FD800C811B81AA81B981EB
:1021D000CE0FD11DCDBFDEBFED010895F894FFCF26
:1021E00000001123200000C20100030001554148F6
:1021F0005F435257005541485F4352575F44455033
:102200004C4F594D454E545F434845434B5F5645EF
:102210005253494F4E0A005541485F4352575F6140
:10222000726D5F7061796C6F61645F6465706C6F13
:10223000796D656E740A005541485F4352575F647B
:10224000697361726D5F7061796C6F61645F646501
:10225000706C6F796D656E740A005541485F43522A
:10226000575F6465706C6F795F7061796C6F6164E2
:102270005F7072696D6172790A005541485F43521F
:10228000575F6465706C6F795F7061796C6F6164C2
:102290005F6261636B75700A004E4F5420464F5267
:1022A00020464C49474854004465706C6F796D6511
:1022B0006E7420636F6E74726F6C207379737465C3
:1022C0006D002573205625692E25692E2569202D40
:0622D0002025730A000046
:00000001FF
