S01A00006465706C6F796D656E74736F6674776172652E737265635E
S1130000FDC0000016C1000014C1000012C10000B0
S113001010C100000EC100000CC100000AC10000A4
S113002008C1000006C1000004C1000002C10000B4
S113003000C10000FEC00000FCC00000FAC00000C7
S1130040F8C00000F6C00000F4C00000F2C00000D8
S1130050F0C00000EEC00000ECC00000EAC00000E8
S1130060E8C00000E6C00000E4C00000E2C00000F8
S1130070E0C00000DEC00000DCC00000DAC0000008
S1130080D8C00000D6C00000D4C00000D2C0000018
S1130090D0C00000CEC00000CCC00000CAC0000028
S11300A0C8C00000C6C00000C4C00000C2C0000038
S11300B0C0C00000BEC00000BCC00000BAC0000048
S11300C0B8C00000B6C00000B4C00000B2C0000058
S11300D0B0C00000AEC00000ACC00000AAC0000068
S11300E0A8C00000A6C00000A4C00000A2C0000078
S11300F0A0C000009EC000009CC000009AC0000088
S113010098C0000096C0000094C0000092C0000097
S113011090C000008EC000008CC00000A4C000008D
S1130120D0C00000FCC0000028C1000082C0000054
S113013080C000007EC000007CC000007AC00000C7
S113014078C0000076C0000074C0000072C00000D7
S113015070C000006EC000006CC000006AC00000E7
S113016068C0000066C0000064C0000062C00000F7
S113017060C000005EC000005CC000005AC0000007
S113018058C0000056C0000054C0000052C0000017
S113019050C000004EC000004CC000004AC0000027
S11301A048C0000046C0000044C0000042C0000037
S11301B040C000003EC000003CC000003AC0000047
S11301C038C0000036C0000034C0000032C0000057
S11301D030C000002EC000002CC000002AC0000067
S11301E028C0000026C0000024C0000022C0000077
S11301F020C000001EC000001CC0000011241FBE4F
S1130200CFEFCDBFDFE2DEBF10E2A0E0B0E2EAE66E
S1130210F0E102C005900D92AE30B107D9F720E2AB
S1130220AEE0B0E201C01D92A032B207E1F763D59F
S11302301AC7E6CECF93DF931F92CDB7DEB7809176
S1130240142090911520E0910E20F0910F20BE0112
S11302506F5F7F4F09958981082E000C990B0F90D1
S1130260DF91CF9108951F920F920FB60F92112430
S11302702F933F934F935F936F937F938F939F93AA
S1130280AF93BF93EF93FF934091240250912502C3
S1130290E0911020F091112061E080E092E0099556
S11302A0FF91EF91BF91AF919F918F917F916F914A
S11302B05F914F913F912F910F900FBE0F901F9020
S11302C018951F920F920FB60F9211242F933F93FC
S11302D04F935F936F937F938F939F93AF93BF934A
S11302E0EF93FF9340912C0250912D02E091102046
S11302F0F091112062E080E092E00995FF91EF9186
S1130300BF91AF919F918F917F916F915F914F9129
S11303103F912F910F900FBE0F901F9018951F9231
S11303200F920FB60F9211242F933F934F935F9325
S11303306F937F938F939F93AF93BF93EF93FF93A9
S11303404091340250913502E0911020F091112037
S113035064E080E092E00995FF91EF91BF91AF9145
S11303609F918F917F916F915F914F913F912F91C9
S11303700F900FBE0F901F9018951F920F920FB6FB
S11303800F9211242F933F934F935F936F937F9317
S11303908F939F93AF93BF93EF93FF9340913C024E
S11303A050913D02E0911020F091112068E080E02E
S11303B092E00995FF91EF91BF91AF919F918F9139
S11303C07F916F915F914F913F912F910F900FBE4D
S11303D00F901F901895FC01918195FFFDCF6083CC
S11303E080E090E00895FC0191819923ECF78081ED
S11303F008954F925F926F927F928F929F92AF92E5
S1130400BF92EF92FF920F931F93CF937C014A0107
S11304105B0128013901FC01848182FF16C0D901E6
S1130420C801689412F8B695A79597958795169480
S1130430D1F7B901A801032E36E176956795579552
S113044047953A95D1F7302D15C0D901C801689464
S113045013F8B695A795979587951694D1F7B90192
S1130460A801032E37E176956795579547953A95F8
S1130470D1F7302D88159905AA05BB0508F4A2C04B
S113048084169506A606B70608F49EC0F701848173
S113049082FD04C0880C991CAA1CBB1CC301B201B8
S11304A0A501940132D42F3F31054105510508F4CB
S11304B08DC08FEF90E0A0E0B0E0C9EF05C0281731
S11304C039074A075B0758F0880F991FAA1FBB1FFB
S11304D0CD3F0CF48160CF5FC73089F74DC0CC238A
S11304E00CF04AC0D501C401880F991FAA1FBB1F75
S11304F0880F991FAA1FBB1F880F991FAA1FBB1F14
S1130500481A590A6A0A7B0ACE3FECF48DEF9FEF32
S11305108C1B9109C7FD939504C0440C551C661CA3
S1130520771C8A95D2F7D501C401B695A7959795FE
S11305308795BC01CD01640D751D861D971DA50110
S11305409401E3D335C083E08C0FA501940104C06A
S1130550220F331F441F551F8A95D2F7DA01C901B0
S1130560B695A79597958795BC01CD01640D751D2A
S1130570861D971DCAD31CC083E08C0FA50194016E
S113058004C0220F331F441F551F8A95D2F7DA0186
S1130590C901B695A79597958795BC01CD01640DC2
S11305A0751D861D971DB1D321503109410951098B
S11305B0832F8F70C295C07FC82BF701C783268312
S11305C081E018C080E016C080E014C0D501C401E9
S11305D0880F991FAA1FBB1F880F991FAA1FBB1F33
S11305E0880F991FAA1FBB1F481A590A6A0A7B0A57
S11305F0C9EF8CCFCF911F910F91FF90EF90BF90D7
S1130600AF909F908F907F906F905F904F900895E0
S11306100F931F93CF93DF93EC018B01009709F4A1
S1130620BEC0803C910521F460E180E0F7D2B7C000
S1130630C11584E0D80721F464E080E0EFD2AFC0B4
S1130640C038E1E0DE0721F462E080E0E7D2A7C031
S1130650C115F1E0DF0721F461E080E0DFD29FC043
S1130660C03883E0D80721F461E081E0D7D297C095
S1130670C115E2E0DE0721F462E081E0CFD28FC051
S1130680C032F3E0DF0721F464E082E0C7D287C020
S1130690C11588E0D80721F461E083E0BFD27FC0B0
S11306A0C115E9E0DE0721F461E084E0B7D277C048
S11306B0C115FAE0DF0721F461E085E0AFD26FC035
S11306C0C03488E0D80721F462E083E0A7D267C091
S11306D0C034E9E0DE0721F462E084E09FD25FC029
S11306E0C039F8E0DF0721F464E083E097D257C013
S11306F0C03989E0D80721F464E084E08FD24FC088
S1130700C039EAE0DE0721F464E085E087D247C01F
S1130710C03CF8E0DF0721F468E083E07FD23FC00B
S1130720C03C89E0D80721F468E084E077D237C080
S1130730C03AE8E0DE0721F460E183E06FD22FC025
S1130740C03AF9E0DF0721F460E184E067D227C012
S1130750C03A8AE0D80721F460E185E05FD21FC087
S1130760C03BE8E0DE0721F460E283E057D217C023
S1130770C03BF9E0DF0721F460E284E04FD20FC010
S1130780C03884E0D80721F460E483E047D207C08E
S1130790C03AE4E0DE0719F460E485E03FD28D81DD
S11307A08F738D83F80195818481892B96819111B2
S11307B098E0892B8D83F801408151816281738196
S11307C000E018E428EE31E0CE0113DE9C8198604D
S11307D09C839C8190619C83DF91CF911F910F91A9
S11307E00895CF93DF93EB01FEDD8883DF91CF91F2
S11307F00895F1CD0895CF92DF92FF920F931F9346
S1130800CF93DF93CDB7DEB72797CDBFDEBF8C0183
S1130810F22E842F8770CC24C394D12CB60102C04D
S1130820660F771F8A95E2F746954695469520E22E
S1130830429FC001112441E050E09A5F94D18F2D72
S11308408770B60102C0660F771F8A95E2F7F694A7
S1130850F694F69420E2F29EC001112440E050E0A8
S11308609A5F81D10115110509F43EC1003C1105BF
S113087021F460E180E0D2D137C1011584E018078A
S113088021F464E080E0CAD12FC1003821E01207CE
S113089021F462E080E0C2D127C1011581E018078C
S11308A021F461E080E0BAD11FC1003823E01207CF
S11308B021F461E081E0B2D117C1011582E018078B
S11308C021F462E081E0AAD10FC1003223E01207D3
S11308D021F464E082E0A2D107C1011588E0180781
S11308E021F461E083E09AD1FFC0011529E01207E9
S11308F021F461E084E092D1F7C001158AE0180781
S113090021F461E085E08AD1EFC0003428E01207C9
S113091021F462E083E082D1E7C0003489E0180763
S113092021F462E084E07AD1DFC0003928E01207C4
S113093021F464E083E072D1D7C0003989E018075C
S113094021F464E084E06AD1CFC000392AE01207C0
S113095021F464E085E062D1C7C0003C88E0180758
S113096021F468E083E05AD1BFC0003C29E01207BB
S113097021F468E084E052D1B7C0003A88E0180757
S113098031F560E183E04AD180EA98E08093142055
S11309909093152089EF93E0809312209093132075
S11309A081EF93E080930E2090930F20E6E0F0E235
S11309B084818D8385818E8386818F8380819181DB
S11309C0A281B38189839A83AB83BC8355C0003AE7
S11309D029E0120721F460E184E020D185C0003AC7
S11309E08AE0180721F460E185E018D17DC0003B5E
S11309F028E0120721F460E283E010D175C0003BC7
S1130A0089E0180721F460E284E008D16DC0003861
S1130A1024E0120721F460E483E000D165C0003AC9
S1130A2084E0180721F460E485E0F8D05DC0009309
S1130A3014201093152089EF93E080931220909353
S1130A40132081EF93E080930E2090930F20E6E033
S1130A50F0E284818D8385818E8386818F8380817A
S1130A609181A281B38189839A83AB83BC8368011A
S1130A70003A28E0120751F460E183E0CFD00F2E52
S1130A80F0EACF2EF8E0DF2EF02D12C080EBC8166E
S1130A9088E0D80621F460E283E0C0D012C020EAE6
S1130AA0C21629E0D20621F460E184E0B7D011C077
S1130AB080EBC81689E0D80621F460E284E0AED069
S1130AC008C020EAC2162AE0D20619F460E185E0E3
S1130AD0A5D0BE016F5F7F4FC8019ADD6AE171E066
S1130AE081EA95E034D122C000931420109315209C
S1130AF089EF93E0809312209093132081EF93E089
S1130B0080930E2090930F20E6E0F0E284818D83A1
S1130B1085818E8386818F8380819181A281B38137
S1130B2089839A83AB83BC836801B0CF2796CDBFFA
S1130B30DEBFDF91CF911F910F91FF90DF90CF9097
S1130B400895682F8091142090911520E09112202F
S1130B50F0911320099599231CF081E090E0089509
S1130B608FEF9FEF0895CF93DF93FC0120E030E0F7
S1130B70C62FD0E0DE01022E02C0B595A7950A94D7
S1130B80E2F7A0FD508B2F5F3F4F3196283031059F
S1130B9089F740FF0AC041FF03C0FC01658302C01E
S1130BA0FC016683FC01618302C0FC016283DF9166
S1130BB0CF910895CF93DF9300D0CDB7DEB78FEFF9
S1130BC0809370008093710080937200809373000F
S1130BD08093740080937500809376008FB78A8326
S1130BE0F8949A81E0E5F0E08081826080839FBF81
S1130BF0818181FFFDCF61E080E490E025D08FB753
S1130C008983F8949981E0E5F0E080818E7F808388
S1130C109FBF0F900F90DF91CF910895CF93DF93F3
S1130C201F92CDB7DEB79FB79983F8949981E82FC7
S1130C30F0E0E059FF4F60958081682360839FBF97
S1130C400F90DF91CF9108951BBEFC0128ED24BFC6
S1130C5060830895EF92FF920F931F93CF9341E027
S1130C6050E060E280E496E07EDF00E416E080E29B
S1130C70F801868341E050E061E080E096E073DFB4
S1130C80C1E0C093060641E050E061E080E496E0F4
S1130C906ADFF801C68341E050E061E080E696E057
S1130CA062DF00E616E0F801C68341E050E062E04E
S1130CB080E896E058DF0F2EF0E8EF2EF6E0FF2EE6
S1130CC0F02D82E0F701868341E050E061E080E8A6
S1130CD096E049DFF701C68341E050E060E180E639
S1130CE096E041DF80E1F8018683CF911F910F9157
S1130CF0FF90EF9008955EDFADDF22E143E160E411
S1130D0076E080EA98E077DDFFCFA1E21A2EAA1BF5
S1130D10BB1BFD010DC0AA1FBB1FEE1FFF1FA217A7
S1130D20B307E407F50720F0A21BB30BE40BF50BA4
S1130D30661F771F881F991F1A9469F7609570952D
S1130D40809590959B01AC01BD01CF0108950F934F
S1130D501F93CF93DF93009731F46115710519F454
S1130D6080E090E039C08B01EC016EE070E081E03E
S1130D7090E037D0FC01892B99F380E88383011537
S1130D80110571F00287138781E88383809116200F
S1130D9090911720892B21F4E0931620F0931720CB
S1130DA02097C9F0C087D187838182608383809133
S1130DB0182090911920892B71F4E0931820F09356
S1130DC0192080911A2090911B20892B21F4E09303
S1130DD01A20F0931B20CF01DF91CF911F910F9127
S1130DE008950F931F93CF93DF93869F8001879F6E
S1130DF0100D969F100D1124C8010DD0EC01009721
S1130E0021F0A80160E070E027D1CE01DF91CF91FD
S1130E101F910F9108950F931F93CF93DF93823007
S1130E20910510F482E090E0E0911E20F0911F20E3
S1130E3020E030E0A0E0B0E0309719F1408151812A
S1130E400281138148175907C8F08417950769F47C
S1130E50109731F012960C93129713961C9327C097
S1130E6000931E2010931F2022C02115310519F074
S1130E704217530718F49A01BD01EF01DF01F8018D
S1130E80DBCF21153105F9F0281B390B243031054E
S1130E9080F48A819B816115710521F0FB018283B5
S1130EA0938304C080931E2090931F20FE013296EA
S1130EB044C0FE01E20FF31F819391932250310944
S1130EC0288339833AC020911C2030911D20232B84
S1130ED041F4209102203091032020931C20309370
S1130EE01D2020910020309101202115310541F46D
S1130EF02DB73EB74091042050910520241B350B9B
S1130F00E0911C20F0911D20E217F307A0F42E1BA2
S1130F103F0B2817390778F0AC014E5F5F4F241759
S1130F20350748F04E0F5F1F40931C2050931D203F
S1130F308193919302C0E0E0F0E0CF01DF91CF9183
S1130F401F910F910895CF93DF93009709F481C007
S1130F50FC01329712821382A0911E20B0911F20AF
S1130F60109781F420813181820F931F20911C20DE
S1130F7030911D202817390751F5E0931C20F09378
S1130F801D2067C0ED0120E030E0CE17DF0740F4FC
S1130F904A815B819E0141155105F1F0EA01F5CFCB
S1130FA0C283D38340815181840F951FC817D90709
S1130FB059F488819981840F951F029680839183C7
S1130FC08A819B81828393832115310529F4E093DF
S1130FD01E20F0931F203DC0E901EA83FB83499161
S1130FE05991C40FD51FEC17FD0761F480819181DD
S1130FF0840F951F0296E9018883998382819381E6
S11310008A839B83E0E0F0E012968D919C91139784
S1131010009719F0FD01DC01F7CF8D919C91119798
S11310209D012E5F3F4F820F931F20911C20309112
S11310301D202817390769F4309729F410921E20CF
S113104010921F2002C012821382A0931C20B0931E
S11310501D20DF91CF910895DC0101C06D934150B3
S10D10605040E0F70895F894FFCF24
S111106A00002020200000C20100030001004D
S9030000FC
